{
  "contractName": "ClearMileage",
  "abi": [
    {
      "constant": true,
      "inputs": [
        {
          "internalType": "address",
          "name": "",
          "type": "address"
        },
        {
          "internalType": "string",
          "name": "",
          "type": "string"
        }
      ],
      "name": "cars",
      "outputs": [
        {
          "internalType": "string",
          "name": "matricula",
          "type": "string"
        },
        {
          "internalType": "bool",
          "name": "exists",
          "type": "bool"
        }
      ],
      "payable": false,
      "stateMutability": "view",
      "type": "function"
    },
    {
      "constant": false,
      "inputs": [
        {
          "internalType": "string",
          "name": "matr",
          "type": "string"
        },
        {
          "internalType": "uint256",
          "name": "km",
          "type": "uint256"
        },
        {
          "internalType": "uint256",
          "name": "m",
          "type": "uint256"
        },
        {
          "internalType": "string",
          "name": "VIN",
          "type": "string"
        }
      ],
      "name": "setCarInfo",
      "outputs": [],
      "payable": false,
      "stateMutability": "nonpayable",
      "type": "function"
    },
    {
      "constant": false,
      "inputs": [
        {
          "internalType": "uint256",
          "name": "km",
          "type": "uint256"
        },
        {
          "internalType": "uint256",
          "name": "m",
          "type": "uint256"
        },
        {
          "internalType": "string",
          "name": "VIN",
          "type": "string"
        }
      ],
      "name": "setCarKm",
      "outputs": [],
      "payable": false,
      "stateMutability": "nonpayable",
      "type": "function"
    },
    {
      "constant": true,
      "inputs": [
        {
          "internalType": "string",
          "name": "VIN",
          "type": "string"
        }
      ],
      "name": "getCarInfo",
      "outputs": [
        {
          "components": [
            {
              "internalType": "string",
              "name": "matricula",
              "type": "string"
            },
            {
              "components": [
                {
                  "internalType": "uint256",
                  "name": "date",
                  "type": "uint256"
                },
                {
                  "internalType": "uint256",
                  "name": "km",
                  "type": "uint256"
                },
                {
                  "internalType": "uint256",
                  "name": "m",
                  "type": "uint256"
                }
              ],
              "internalType": "struct ClearMileage.dateKm[]",
              "name": "kmArray",
              "type": "tuple[]"
            },
            {
              "internalType": "bool",
              "name": "exists",
              "type": "bool"
            }
          ],
          "internalType": "struct ClearMileage.carInfo",
          "name": "",
          "type": "tuple"
        }
      ],
      "payable": false,
      "stateMutability": "view",
      "type": "function"
    },
    {
      "constant": false,
      "inputs": [
        {
          "internalType": "string",
          "name": "VIN",
          "type": "string"
        },
        {
          "internalType": "address",
          "name": "destiny",
          "type": "address"
        }
      ],
      "name": "changeCarOwner",
      "outputs": [],
      "payable": false,
      "stateMutability": "nonpayable",
      "type": "function"
    },
    {
      "constant": true,
      "inputs": [],
      "name": "greet",
      "outputs": [
        {
          "internalType": "string",
          "name": "",
          "type": "string"
        }
      ],
      "payable": false,
      "stateMutability": "view",
      "type": "function"
    }
  ],
  "bytecode": "0x608060405234801561001057600080fd5b50611610806100206000396000f3fe608060405234801561001057600080fd5b50600436106100625760003560e01c80631a6ad379146100675780631f9f6fd714610083578063590257bc1461009f5780638c907dfa146100bb578063bed439bd146100ec578063cfae32171461011c575b600080fd5b610081600480360361007c9190810190610fa6565b61013a565b005b61009d60048036036100989190810190610f52565b6103fa565b005b6100b960048036036100b49190810190611039565b6106d4565b005b6100d560048036036100d09190810190610ebd565b6107aa565b6040516100e3929190611371565b60405180910390f35b61010660048036036101019190810190610f11565b610896565b60405161011391906113e1565b60405180910390f35b610124610b91565b604051610131919061134f565b60405180910390f35b6000803373ffffffffffffffffffffffffffffffffffffffff1673ffffffffffffffffffffffffffffffffffffffff168152602001908152602001600020816040516101869190611338565b908152602001604051809103902060020160009054906101000a900460ff16156101ba576101b58383836106d4565b6103f4565b6000806001836040516101cd9190611338565b908152602001604051809103902060009054906101000a900473ffffffffffffffffffffffffffffffffffffffff1673ffffffffffffffffffffffffffffffffffffffff1673ffffffffffffffffffffffffffffffffffffffff168152602001908152602001600020816040516102449190611338565b908152602001604051809103902060020160009054906101000a900460ff16156102a3576040517f08c379a000000000000000000000000000000000000000000000000000000000815260040161029a906113a1565b60405180910390fd5b836000803373ffffffffffffffffffffffffffffffffffffffff1673ffffffffffffffffffffffffffffffffffffffff168152602001908152602001600020826040516102f09190611338565b90815260200160405180910390206000019080519060200190610314929190610bce565b5060016000803373ffffffffffffffffffffffffffffffffffffffff1673ffffffffffffffffffffffffffffffffffffffff168152602001908152602001600020826040516103639190611338565b908152602001604051809103902060020160006101000a81548160ff0219169083151502179055503360018260405161039c9190611338565b908152602001604051809103902060006101000a81548173ffffffffffffffffffffffffffffffffffffffff021916908373ffffffffffffffffffffffffffffffffffffffff1602179055506103f38383836106d4565b5b50505050565b8073ffffffffffffffffffffffffffffffffffffffff163373ffffffffffffffffffffffffffffffffffffffff161415610469576040517f08c379a0000000000000000000000000000000000000000000000000000000008152600401610460906113c1565b60405180910390fd5b6000803373ffffffffffffffffffffffffffffffffffffffff1673ffffffffffffffffffffffffffffffffffffffff168152602001908152602001600020826040516104b59190611338565b908152602001604051809103902060020160009054906101000a900460ff16156106d0576000803373ffffffffffffffffffffffffffffffffffffffff1673ffffffffffffffffffffffffffffffffffffffff168152602001908152602001600020826040516105259190611338565b90815260200160405180910390206000808373ffffffffffffffffffffffffffffffffffffffff1673ffffffffffffffffffffffffffffffffffffffff1681526020019081526020016000208360405161057f9190611338565b9081526020016040518091039020600082018160000190805460018160011615610100020316600290046105b4929190610c4e565b5060018201816001019080546105cb929190610cd5565b506002820160009054906101000a900460ff168160020160006101000a81548160ff0219169083151502179055509050508060018360405161060d9190611338565b908152602001604051809103902060006101000a81548173ffffffffffffffffffffffffffffffffffffffff021916908373ffffffffffffffffffffffffffffffffffffffff16021790555060008060003373ffffffffffffffffffffffffffffffffffffffff1673ffffffffffffffffffffffffffffffffffffffff168152602001908152602001600020836040516106a79190611338565b908152602001604051809103902060020160006101000a81548160ff0219169083151502179055505b5050565b6106dc610d4b565b4281600001818152505083816020018181525050828160400181815250506000803373ffffffffffffffffffffffffffffffffffffffff1673ffffffffffffffffffffffffffffffffffffffff168152602001908152602001600020826040516107469190611338565b9081526020016040518091039020600101819080600181540180825580915050906001820390600052602060002090600302016000909192909190915060008201518160000155602082015181600101556040820151816002015550505050505050565b60006020528160005260406000208180516020810182018051848252602083016020850120818352809550505050505060009150915050806000018054600181600116156101000203166002900480601f0160208091040260200160405190810160405280929190818152602001828054600181600116156101000203166002900480156108795780601f1061084e57610100808354040283529160200191610879565b820191906000526020600020905b81548152906001019060200180831161085c57829003601f168201915b5050505050908060020160009054906101000a900460ff16905082565b61089e610d6c565b6000806001846040516108b19190611338565b908152602001604051809103902060009054906101000a900473ffffffffffffffffffffffffffffffffffffffff1673ffffffffffffffffffffffffffffffffffffffff1673ffffffffffffffffffffffffffffffffffffffff168152602001908152602001600020826040516109289190611338565b908152602001604051809103902060020160009054906101000a900460ff1615610b305760008060018460405161095f9190611338565b908152602001604051809103902060009054906101000a900473ffffffffffffffffffffffffffffffffffffffff1673ffffffffffffffffffffffffffffffffffffffff1673ffffffffffffffffffffffffffffffffffffffff168152602001908152602001600020826040516109d69190611338565b9081526020016040518091039020604051806060016040529081600082018054600181600116156101000203166002900480601f016020809104026020016040519081016040528092919081815260200182805460018160011615610100020316600290048015610a885780601f10610a5d57610100808354040283529160200191610a88565b820191906000526020600020905b815481529060010190602001808311610a6b57829003601f168201915b5050505050815260200160018201805480602002602001604051908101604052809291908181526020016000905b82821015610b065783829060005260206000209060030201604051806060016040529081600082015481526020016001820154815260200160028201548152505081526020019060010190610ab6565b5050505081526020016002820160009054906101000a900460ff1615151515815250509050610b8c565b610b38610d6c565b6040518060400160405280601881526020017f4552524f522e2043617220646f65736e2774206578697374000000000000000081525081600001819052506000816040019015159081151581525050809150505b919050565b60606040518060400160405280600581526020017f48454c4c4f000000000000000000000000000000000000000000000000000000815250905090565b828054600181600116156101000203166002900490600052602060002090601f016020900481019282601f10610c0f57805160ff1916838001178555610c3d565b82800160010185558215610c3d579182015b82811115610c3c578251825591602001919060010190610c21565b5b509050610c4a9190610d8f565b5090565b828054600181600116156101000203166002900490600052602060002090601f016020900481019282601f10610c875780548555610cc4565b82800160010185558215610cc457600052602060002091601f016020900482015b82811115610cc3578254825591600101919060010190610ca8565b5b509050610cd19190610d8f565b5090565b828054828255906000526020600020906003028101928215610d3a5760005260206000209160030282015b82811115610d39578282600082015481600001556001820154816001015560028201548160020155505091600301919060030190610d00565b5b509050610d479190610db4565b5090565b60405180606001604052806000815260200160008152602001600081525090565b604051806060016040528060608152602001606081526020016000151581525090565b610db191905b80821115610dad576000816000905550600101610d95565b5090565b90565b610de891905b80821115610de4576000808201600090556001820160009055600282016000905550600301610dba565b5090565b90565b600081359050610dfa8161159f565b92915050565b600082601f830112610e1157600080fd5b8135610e24610e1f82611430565b611403565b91508082526020830160208301858383011115610e4057600080fd5b610e4b83828461154c565b50505092915050565b600082601f830112610e6557600080fd5b8135610e78610e738261145c565b611403565b91508082526020830160208301858383011115610e9457600080fd5b610e9f83828461154c565b50505092915050565b600081359050610eb7816115b6565b92915050565b60008060408385031215610ed057600080fd5b6000610ede85828601610deb565b925050602083013567ffffffffffffffff811115610efb57600080fd5b610f0785828601610e00565b9150509250929050565b600060208284031215610f2357600080fd5b600082013567ffffffffffffffff811115610f3d57600080fd5b610f4984828501610e54565b91505092915050565b60008060408385031215610f6557600080fd5b600083013567ffffffffffffffff811115610f7f57600080fd5b610f8b85828601610e54565b9250506020610f9c85828601610deb565b9150509250929050565b60008060008060808587031215610fbc57600080fd5b600085013567ffffffffffffffff811115610fd657600080fd5b610fe287828801610e54565b9450506020610ff387828801610ea8565b935050604061100487828801610ea8565b925050606085013567ffffffffffffffff81111561102157600080fd5b61102d87828801610e54565b91505092959194509250565b60008060006060848603121561104e57600080fd5b600061105c86828701610ea8565b935050602061106d86828701610ea8565b925050604084013567ffffffffffffffff81111561108a57600080fd5b61109686828701610e54565b9150509250925092565b60006110ac83836112e7565b60608301905092915050565b60006110c382611498565b6110cd81856114c6565b93506110d883611488565b8060005b838110156111095781516110f088826110a0565b97506110fb836114b9565b9250506001810190506110dc565b5085935050505092915050565b61111f81611516565b82525050565b61112e81611516565b82525050565b600061113f826114ae565b61114981856114e8565b935061115981856020860161155b565b6111628161158e565b840191505092915050565b6000611178826114ae565b61118281856114f9565b935061119281856020860161155b565b80840191505092915050565b60006111a9826114a3565b6111b381856114d7565b93506111c381856020860161155b565b6111cc8161158e565b840191505092915050565b60006111e2826114a3565b6111ec81856114e8565b93506111fc81856020860161155b565b6112058161158e565b840191505092915050565b600061121d6013836114e8565b91507f43617220616c7265616479206578697374732e000000000000000000000000006000830152602082019050919050565b600061125d6018836114e8565b91507f53616d652073656e64657220616e642064657374696e792e00000000000000006000830152602082019050919050565b600060608301600083015184820360008601526112ad828261119e565b915050602083015184820360208601526112c782826110b8565b91505060408301516112dc6040860182611116565b508091505092915050565b6060820160008201516112fd6000850182611329565b5060208201516113106020850182611329565b5060408201516113236040850182611329565b50505050565b61133281611542565b82525050565b6000611344828461116d565b915081905092915050565b600060208201905081810360008301526113698184611134565b905092915050565b6000604082019050818103600083015261138b81856111d7565b905061139a6020830184611125565b9392505050565b600060208201905081810360008301526113ba81611210565b9050919050565b600060208201905081810360008301526113da81611250565b9050919050565b600060208201905081810360008301526113fb8184611290565b905092915050565b6000604051905081810181811067ffffffffffffffff8211171561142657600080fd5b8060405250919050565b600067ffffffffffffffff82111561144757600080fd5b601f19601f8301169050602081019050919050565b600067ffffffffffffffff82111561147357600080fd5b601f19601f8301169050602081019050919050565b6000819050602082019050919050565b600081519050919050565b600081519050919050565b600081519050919050565b6000602082019050919050565b600082825260208201905092915050565b600082825260208201905092915050565b600082825260208201905092915050565b600081905092915050565b600061150f82611522565b9050919050565b60008115159050919050565b600073ffffffffffffffffffffffffffffffffffffffff82169050919050565b6000819050919050565b82818337600083830152505050565b60005b8381101561157957808201518184015260208101905061155e565b83811115611588576000848401525b50505050565b6000601f19601f8301169050919050565b6115a881611504565b81146115b357600080fd5b50565b6115bf81611542565b81146115ca57600080fd5b5056fea365627a7a72315820432cce6dc98ba168f39cb3efa2b42bb9596711d27fcbec97789391b201bc542b6c6578706572696d656e74616cf564736f6c63430005100040",
  "source": "pragma solidity ^0.5.0;\r\npragma experimental ABIEncoderV2;\r\n\r\ncontract ClearMileage {\r\n    struct dateKm {\r\n        uint date;\r\n        uint km;\r\n        uint m;\r\n    }\r\n    struct carInfo {\r\n        string matricula;\r\n        dateKm[] kmArray;\r\n        bool exists;\r\n    }\r\n    mapping(address => mapping(string => carInfo)) public cars;\r\n    mapping(string => address) VINtoAdress;\r\n    \r\n    function setCarInfo(string memory matr, uint km, uint m, string memory VIN) public{\r\n        if (cars[msg.sender][VIN].exists) setCarKm(km, m, VIN);\r\n        else{\r\n            require (!cars[VINtoAdress[VIN]][VIN].exists, \"Car already exists.\");\r\n            cars[msg.sender][VIN].matricula = matr;\r\n            cars[msg.sender][VIN].exists = true;\r\n            VINtoAdress[VIN] = msg.sender;\r\n            setCarKm(km, m, VIN);\r\n        }\r\n    }\r\n\r\n    function setCarKm(uint km, uint m, string memory VIN) public{\r\n            dateKm memory temp;\r\n            temp.date = now;\r\n            temp.km = km;\r\n            temp.m = m;\r\n            cars[msg.sender][VIN].kmArray.push(temp);\r\n    }\r\n\r\n    function getCarInfo(string memory VIN) public view returns (carInfo memory){\r\n        if (cars[VINtoAdress[VIN]][VIN].exists) return cars[VINtoAdress[VIN]][VIN];\r\n        else {\r\n            carInfo memory error;\r\n            error.matricula = \"ERROR. Car doesn't exist\";\r\n            error.exists = false;\r\n            return error;\r\n        }\r\n    }\r\n\r\n    function changeCarOwner(string memory VIN, address destiny) public{\r\n        require(msg.sender != destiny, \"Same sender and destiny.\");\r\n        if (cars[msg.sender][VIN].exists) {\r\n            cars[destiny][VIN] = cars[msg.sender][VIN];\r\n            VINtoAdress[VIN] = destiny;\r\n            cars[msg.sender][VIN].exists = false;\r\n        }\r\n    }\r\n\r\n    function greet() public view returns (string memory) {\r\n        return \"HELLO\";\r\n    }\r\n}",
  "sourcePath": "C:/code/pet-shop-tutorial/contracts/ClearMileage.sol",
  "compiler": {
    "name": "solc",
    "version": "0.5.16+commit.9c3226ce.Emscripten.clang"
  },
  "schemaVersion": "3.0.22",
  "updatedAt": "2020-05-01T20:19:16.632Z",
  "networkType": "ethereum",
  "devdoc": {
    "methods": {}
  },
  "userdoc": {
    "methods": {}
  }
}