{
  "contractName": "ClearMileage",
  "abi": [
    {
      "constant": true,
      "inputs": [
        {
          "internalType": "address",
          "name": "",
          "type": "address"
        },
        {
          "internalType": "string",
          "name": "",
          "type": "string"
        }
      ],
      "name": "cars",
      "outputs": [
        {
          "internalType": "string",
          "name": "matricula",
          "type": "string"
        },
        {
          "internalType": "bool",
          "name": "exists",
          "type": "bool"
        }
      ],
      "payable": false,
      "stateMutability": "view",
      "type": "function"
    },
    {
      "constant": false,
      "inputs": [
        {
          "internalType": "string",
          "name": "matr",
          "type": "string"
        },
        {
          "internalType": "uint256",
          "name": "m",
          "type": "uint256"
        },
        {
          "internalType": "string",
          "name": "VIN",
          "type": "string"
        }
      ],
      "name": "setCarInfo",
      "outputs": [],
      "payable": false,
      "stateMutability": "nonpayable",
      "type": "function"
    },
    {
      "constant": false,
      "inputs": [
        {
          "internalType": "uint256",
          "name": "m",
          "type": "uint256"
        },
        {
          "internalType": "string",
          "name": "VIN",
          "type": "string"
        }
      ],
      "name": "setCarKm",
      "outputs": [],
      "payable": false,
      "stateMutability": "nonpayable",
      "type": "function"
    },
    {
      "constant": true,
      "inputs": [
        {
          "internalType": "string",
          "name": "VIN",
          "type": "string"
        }
      ],
      "name": "getCarInfo",
      "outputs": [
        {
          "components": [
            {
              "internalType": "string",
              "name": "matricula",
              "type": "string"
            },
            {
              "components": [
                {
                  "internalType": "uint256",
                  "name": "date",
                  "type": "uint256"
                },
                {
                  "internalType": "uint256",
                  "name": "m",
                  "type": "uint256"
                }
              ],
              "internalType": "struct ClearMileage.dateKm[]",
              "name": "kmArray",
              "type": "tuple[]"
            },
            {
              "internalType": "bool",
              "name": "exists",
              "type": "bool"
            }
          ],
          "internalType": "struct ClearMileage.carInfo",
          "name": "",
          "type": "tuple"
        }
      ],
      "payable": false,
      "stateMutability": "view",
      "type": "function"
    },
    {
      "constant": false,
      "inputs": [
        {
          "internalType": "string",
          "name": "VIN",
          "type": "string"
        },
        {
          "internalType": "address",
          "name": "destiny",
          "type": "address"
        }
      ],
      "name": "changeCarOwner",
      "outputs": [],
      "payable": false,
      "stateMutability": "nonpayable",
      "type": "function"
    },
    {
      "constant": true,
      "inputs": [],
      "name": "greet",
      "outputs": [
        {
          "internalType": "string",
          "name": "",
          "type": "string"
        }
      ],
      "payable": false,
      "stateMutability": "view",
      "type": "function"
    }
  ],
  "bytecode": "0x608060405234801561001057600080fd5b5061159b806100206000396000f3fe608060405234801561001057600080fd5b50600436106100625760003560e01c80631f9f6fd7146100675780633645be85146100835780638980b5f01461009f5780638c907dfa146100bb578063bed439bd146100ec578063cfae32171461011c575b600080fd5b610081600480360361007c9190810190610f17565b61013a565b005b61009d60048036036100989190810190610f6b565b610414565b005b6100b960048036036100b49190810190610fea565b6106d1565b005b6100d560048036036100d09190810190610e82565b610792565b6040516100e39291906112fc565b60405180910390f35b61010660048036036101019190810190610ed6565b61087e565b604051610113919061136c565b60405180910390f35b610124610b6f565b60405161013191906112da565b60405180910390f35b8073ffffffffffffffffffffffffffffffffffffffff163373ffffffffffffffffffffffffffffffffffffffff1614156101a9576040517f08c379a00000000000000000000000000000000000000000000000000000000081526004016101a09061134c565b60405180910390fd5b6000803373ffffffffffffffffffffffffffffffffffffffff1673ffffffffffffffffffffffffffffffffffffffff168152602001908152602001600020826040516101f591906112c3565b908152602001604051809103902060020160009054906101000a900460ff1615610410576000803373ffffffffffffffffffffffffffffffffffffffff1673ffffffffffffffffffffffffffffffffffffffff1681526020019081526020016000208260405161026591906112c3565b90815260200160405180910390206000808373ffffffffffffffffffffffffffffffffffffffff1673ffffffffffffffffffffffffffffffffffffffff168152602001908152602001600020836040516102bf91906112c3565b9081526020016040518091039020600082018160000190805460018160011615610100020316600290046102f4929190610bac565b50600182018160010190805461030b929190610c33565b506002820160009054906101000a900460ff168160020160006101000a81548160ff0219169083151502179055509050508060018360405161034d91906112c3565b908152602001604051809103902060006101000a81548173ffffffffffffffffffffffffffffffffffffffff021916908373ffffffffffffffffffffffffffffffffffffffff16021790555060008060003373ffffffffffffffffffffffffffffffffffffffff1673ffffffffffffffffffffffffffffffffffffffff168152602001908152602001600020836040516103e791906112c3565b908152602001604051809103902060020160006101000a81548160ff0219169083151502179055505b5050565b6000803373ffffffffffffffffffffffffffffffffffffffff1673ffffffffffffffffffffffffffffffffffffffff1681526020019081526020016000208160405161046091906112c3565b908152602001604051809103902060020160009054906101000a900460ff16156104935761048e82826106d1565b6106cc565b6000806001836040516104a691906112c3565b908152602001604051809103902060009054906101000a900473ffffffffffffffffffffffffffffffffffffffff1673ffffffffffffffffffffffffffffffffffffffff1673ffffffffffffffffffffffffffffffffffffffff1681526020019081526020016000208160405161051d91906112c3565b908152602001604051809103902060020160009054906101000a900460ff161561057c576040517f08c379a00000000000000000000000000000000000000000000000000000000081526004016105739061132c565b60405180910390fd5b826000803373ffffffffffffffffffffffffffffffffffffffff1673ffffffffffffffffffffffffffffffffffffffff168152602001908152602001600020826040516105c991906112c3565b908152602001604051809103902060000190805190602001906105ed929190610c9f565b5060016000803373ffffffffffffffffffffffffffffffffffffffff1673ffffffffffffffffffffffffffffffffffffffff1681526020019081526020016000208260405161063c91906112c3565b908152602001604051809103902060020160006101000a81548160ff0219169083151502179055503360018260405161067591906112c3565b908152602001604051809103902060006101000a81548173ffffffffffffffffffffffffffffffffffffffff021916908373ffffffffffffffffffffffffffffffffffffffff1602179055506106cb82826106d1565b5b505050565b6106d9610d1f565b42816000018181525050828160200181815250506000803373ffffffffffffffffffffffffffffffffffffffff1673ffffffffffffffffffffffffffffffffffffffff1681526020019081526020016000208260405161073991906112c3565b908152602001604051809103902060010181908060018154018082558091505090600182039060005260206000209060020201600090919290919091506000820151816000015560208201518160010155505050505050565b60006020528160005260406000208180516020810182018051848252602083016020850120818352809550505050505060009150915050806000018054600181600116156101000203166002900480601f0160208091040260200160405190810160405280929190818152602001828054600181600116156101000203166002900480156108615780601f1061083657610100808354040283529160200191610861565b820191906000526020600020905b81548152906001019060200180831161084457829003601f168201915b5050505050908060020160009054906101000a900460ff16905082565b610886610d39565b60008060018460405161089991906112c3565b908152602001604051809103902060009054906101000a900473ffffffffffffffffffffffffffffffffffffffff1673ffffffffffffffffffffffffffffffffffffffff1673ffffffffffffffffffffffffffffffffffffffff1681526020019081526020016000208260405161091091906112c3565b908152602001604051809103902060020160009054906101000a900460ff1615610b0e5760008060018460405161094791906112c3565b908152602001604051809103902060009054906101000a900473ffffffffffffffffffffffffffffffffffffffff1673ffffffffffffffffffffffffffffffffffffffff1673ffffffffffffffffffffffffffffffffffffffff168152602001908152602001600020826040516109be91906112c3565b9081526020016040518091039020604051806060016040529081600082018054600181600116156101000203166002900480601f016020809104026020016040519081016040528092919081815260200182805460018160011615610100020316600290048015610a705780601f10610a4557610100808354040283529160200191610a70565b820191906000526020600020905b815481529060010190602001808311610a5357829003601f168201915b5050505050815260200160018201805480602002602001604051908101604052809291908181526020016000905b82821015610ae457838290600052602060002090600202016040518060400160405290816000820154815260200160018201548152505081526020019060010190610a9e565b5050505081526020016002820160009054906101000a900460ff1615151515815250509050610b6a565b610b16610d39565b6040518060400160405280601881526020017f4552524f522e2043617220646f65736e2774206578697374000000000000000081525081600001819052506000816040019015159081151581525050809150505b919050565b60606040518060400160405280600581526020017f48454c4c4f000000000000000000000000000000000000000000000000000000815250905090565b828054600181600116156101000203166002900490600052602060002090601f016020900481019282601f10610be55780548555610c22565b82800160010185558215610c2257600052602060002091601f016020900482015b82811115610c21578254825591600101919060010190610c06565b5b509050610c2f9190610d5c565b5090565b828054828255906000526020600020906002028101928215610c8e5760005260206000209160020282015b82811115610c8d5782826000820154816000015560018201548160010155505091600201919060020190610c5e565b5b509050610c9b9190610d81565b5090565b828054600181600116156101000203166002900490600052602060002090601f016020900481019282601f10610ce057805160ff1916838001178555610d0e565b82800160010185558215610d0e579182015b82811115610d0d578251825591602001919060010190610cf2565b5b509050610d1b9190610d5c565b5090565b604051806040016040528060008152602001600081525090565b604051806060016040528060608152602001606081526020016000151581525090565b610d7e91905b80821115610d7a576000816000905550600101610d62565b5090565b90565b610dad91905b80821115610da957600080820160009055600182016000905550600201610d87565b5090565b90565b600081359050610dbf8161152a565b92915050565b600082601f830112610dd657600080fd5b8135610de9610de4826113bb565b61138e565b91508082526020830160208301858383011115610e0557600080fd5b610e108382846114d7565b50505092915050565b600082601f830112610e2a57600080fd5b8135610e3d610e38826113e7565b61138e565b91508082526020830160208301858383011115610e5957600080fd5b610e648382846114d7565b50505092915050565b600081359050610e7c81611541565b92915050565b60008060408385031215610e9557600080fd5b6000610ea385828601610db0565b925050602083013567ffffffffffffffff811115610ec057600080fd5b610ecc85828601610dc5565b9150509250929050565b600060208284031215610ee857600080fd5b600082013567ffffffffffffffff811115610f0257600080fd5b610f0e84828501610e19565b91505092915050565b60008060408385031215610f2a57600080fd5b600083013567ffffffffffffffff811115610f4457600080fd5b610f5085828601610e19565b9250506020610f6185828601610db0565b9150509250929050565b600080600060608486031215610f8057600080fd5b600084013567ffffffffffffffff811115610f9a57600080fd5b610fa686828701610e19565b9350506020610fb786828701610e6d565b925050604084013567ffffffffffffffff811115610fd457600080fd5b610fe086828701610e19565b9150509250925092565b60008060408385031215610ffd57600080fd5b600061100b85828601610e6d565b925050602083013567ffffffffffffffff81111561102857600080fd5b61103485828601610e19565b9150509250929050565b600061104a8383611285565b60408301905092915050565b600061106182611423565b61106b8185611451565b935061107683611413565b8060005b838110156110a757815161108e888261103e565b975061109983611444565b92505060018101905061107a565b5085935050505092915050565b6110bd816114a1565b82525050565b6110cc816114a1565b82525050565b60006110dd82611439565b6110e78185611473565b93506110f78185602086016114e6565b61110081611519565b840191505092915050565b600061111682611439565b6111208185611484565b93506111308185602086016114e6565b80840191505092915050565b60006111478261142e565b6111518185611462565b93506111618185602086016114e6565b61116a81611519565b840191505092915050565b60006111808261142e565b61118a8185611473565b935061119a8185602086016114e6565b6111a381611519565b840191505092915050565b60006111bb601383611473565b91507f43617220616c7265616479206578697374732e000000000000000000000000006000830152602082019050919050565b60006111fb601883611473565b91507f53616d652073656e64657220616e642064657374696e792e00000000000000006000830152602082019050919050565b6000606083016000830151848203600086015261124b828261113c565b915050602083015184820360208601526112658282611056565b915050604083015161127a60408601826110b4565b508091505092915050565b60408201600082015161129b60008501826112b4565b5060208201516112ae60208501826112b4565b50505050565b6112bd816114cd565b82525050565b60006112cf828461110b565b915081905092915050565b600060208201905081810360008301526112f481846110d2565b905092915050565b600060408201905081810360008301526113168185611175565b905061132560208301846110c3565b9392505050565b60006020820190508181036000830152611345816111ae565b9050919050565b60006020820190508181036000830152611365816111ee565b9050919050565b60006020820190508181036000830152611386818461122e565b905092915050565b6000604051905081810181811067ffffffffffffffff821117156113b157600080fd5b8060405250919050565b600067ffffffffffffffff8211156113d257600080fd5b601f19601f8301169050602081019050919050565b600067ffffffffffffffff8211156113fe57600080fd5b601f19601f8301169050602081019050919050565b6000819050602082019050919050565b600081519050919050565b600081519050919050565b600081519050919050565b6000602082019050919050565b600082825260208201905092915050565b600082825260208201905092915050565b600082825260208201905092915050565b600081905092915050565b600061149a826114ad565b9050919050565b60008115159050919050565b600073ffffffffffffffffffffffffffffffffffffffff82169050919050565b6000819050919050565b82818337600083830152505050565b60005b838110156115045780820151818401526020810190506114e9565b83811115611513576000848401525b50505050565b6000601f19601f8301169050919050565b6115338161148f565b811461153e57600080fd5b50565b61154a816114cd565b811461155557600080fd5b5056fea365627a7a723158204945d55314c8eb12e0f654d8141a43045426897f8320ac13c871a75f2ae487266c6578706572696d656e74616cf564736f6c63430005100040",
  "source": "pragma solidity ^0.5.0;\r\npragma experimental ABIEncoderV2;\r\n\r\ncontract ClearMileage {\r\n    struct dateKm {\r\n        uint date;\r\n        //uint km;\r\n        uint m;\r\n    }\r\n    struct carInfo {\r\n        string matricula;\r\n        dateKm[] kmArray;\r\n        bool exists;\r\n    }\r\n    mapping(address => mapping(string => carInfo)) public cars;\r\n    mapping(string => address) VINtoAdress;\r\n    \r\n    function setCarInfo(string memory matr, uint m, string memory VIN) public{\r\n        if (cars[msg.sender][VIN].exists) setCarKm(m, VIN);\r\n        else{\r\n            require (!cars[VINtoAdress[VIN]][VIN].exists, \"Car already exists.\");\r\n            cars[msg.sender][VIN].matricula = matr;\r\n            cars[msg.sender][VIN].exists = true;\r\n            VINtoAdress[VIN] = msg.sender;\r\n            setCarKm(m, VIN);\r\n        }\r\n    }\r\n\r\n    function setCarKm(uint m, string memory VIN) public{\r\n            dateKm memory temp;\r\n            temp.date = now;\r\n            temp.m = m;\r\n            cars[msg.sender][VIN].kmArray.push(temp);\r\n    }\r\n\r\n    function getCarInfo(string memory VIN) public view returns (carInfo memory){\r\n        if (cars[VINtoAdress[VIN]][VIN].exists) return cars[VINtoAdress[VIN]][VIN];\r\n        else {\r\n            carInfo memory error;\r\n            error.matricula = \"ERROR. Car doesn't exist\";\r\n            error.exists = false;\r\n            return error;\r\n        }\r\n    }\r\n\r\n    function changeCarOwner(string memory VIN, address destiny) public{\r\n        require(msg.sender != destiny, \"Same sender and destiny.\");\r\n        if (cars[msg.sender][VIN].exists) {\r\n            cars[destiny][VIN] = cars[msg.sender][VIN];\r\n            VINtoAdress[VIN] = destiny;\r\n            cars[msg.sender][VIN].exists = false;\r\n        }\r\n    }\r\n\r\n    function greet() public view returns (string memory) {\r\n        return \"HELLO\";\r\n    }\r\n}",
  "sourcePath": "C:/code/ClearMileage/contracts/ClearMileage.sol",
  "compiler": {
    "name": "solc",
    "version": "0.5.16+commit.9c3226ce.Emscripten.clang"
  },
  "schemaVersion": "3.0.22",
  "updatedAt": "2020-05-14T15:31:39.750Z",
  "networkType": "ethereum",
  "devdoc": {
    "methods": {}
  },
  "userdoc": {
    "methods": {}
  }
}