{
  "contractName": "ClearMileage",
  "abi": [
    {
      "constant": true,
      "inputs": [
        {
          "internalType": "address",
          "name": "",
          "type": "address"
        }
      ],
      "name": "cars",
      "outputs": [
        {
          "internalType": "string",
          "name": "matricula",
          "type": "string"
        },
        {
          "internalType": "bool",
          "name": "exists",
          "type": "bool"
        }
      ],
      "payable": false,
      "stateMutability": "view",
      "type": "function"
    },
    {
      "constant": false,
      "inputs": [
        {
          "internalType": "string",
          "name": "m",
          "type": "string"
        },
        {
          "internalType": "uint256",
          "name": "k",
          "type": "uint256"
        }
      ],
      "name": "setCarInfo",
      "outputs": [],
      "payable": false,
      "stateMutability": "nonpayable",
      "type": "function"
    },
    {
      "constant": false,
      "inputs": [
        {
          "internalType": "uint256",
          "name": "k",
          "type": "uint256"
        }
      ],
      "name": "setCarKm",
      "outputs": [],
      "payable": false,
      "stateMutability": "nonpayable",
      "type": "function"
    },
    {
      "constant": true,
      "inputs": [
        {
          "internalType": "address",
          "name": "wallet",
          "type": "address"
        }
      ],
      "name": "getCarInfo",
      "outputs": [
        {
          "components": [
            {
              "internalType": "string",
              "name": "matricula",
              "type": "string"
            },
            {
              "components": [
                {
                  "internalType": "uint256",
                  "name": "date",
                  "type": "uint256"
                },
                {
                  "internalType": "uint256",
                  "name": "km",
                  "type": "uint256"
                }
              ],
              "internalType": "struct ClearMileage.dateKm[]",
              "name": "kmArray",
              "type": "tuple[]"
            },
            {
              "internalType": "bool",
              "name": "exists",
              "type": "bool"
            }
          ],
          "internalType": "struct ClearMileage.carInfo",
          "name": "",
          "type": "tuple"
        }
      ],
      "payable": false,
      "stateMutability": "view",
      "type": "function"
    }
  ],
  "bytecode": "0x608060405234801561001057600080fd5b50610abd806100206000396000f3fe608060405234801561001057600080fd5b506004361061004c5760003560e01c80634b87034314610051578063afd79cbd1461006d578063b3fd97451461009e578063c1588e80146100ba575b600080fd5b61006b60048036036100669190810190610688565b6100ea565b005b6100876004803603610082919081019061065f565b61020a565b6040516100959291906108a0565b60405180910390f35b6100b860048036036100b391908101906106dc565b6102d3565b005b6100d460048036036100cf919081019061065f565b610377565b6040516100e191906108d0565b60405180910390f35b6000803373ffffffffffffffffffffffffffffffffffffffff1673ffffffffffffffffffffffffffffffffffffffff16815260200190815260200160002060020160009054906101000a900460ff161561014c57610147816102d3565b610206565b816000803373ffffffffffffffffffffffffffffffffffffffff1673ffffffffffffffffffffffffffffffffffffffff16815260200190815260200160002060000190805190602001906101a19291906104ff565b5060016000803373ffffffffffffffffffffffffffffffffffffffff1673ffffffffffffffffffffffffffffffffffffffff16815260200190815260200160002060020160006101000a81548160ff021916908315150217905550610205816102d3565b5b5050565b6000602052806000526040600020600091509050806000018054600181600116156101000203166002900480601f0160208091040260200160405190810160405280929190818152602001828054600181600116156101000203166002900480156102b65780601f1061028b576101008083540402835291602001916102b6565b820191906000526020600020905b81548152906001019060200180831161029957829003601f168201915b5050505050908060020160009054906101000a900460ff16905082565b6102db61057f565b42816000018181525050818160200181815250506000803373ffffffffffffffffffffffffffffffffffffffff1673ffffffffffffffffffffffffffffffffffffffff168152602001908152602001600020600101819080600181540180825580915050906001820390600052602060002090600202016000909192909190915060008201518160000155602082015181600101555050505050565b61037f610599565b6000808373ffffffffffffffffffffffffffffffffffffffff1673ffffffffffffffffffffffffffffffffffffffff168152602001908152602001600020604051806060016040529081600082018054600181600116156101000203166002900480601f0160208091040260200160405190810160405280929190818152602001828054600181600116156101000203166002900480156104615780601f1061043657610100808354040283529160200191610461565b820191906000526020600020905b81548152906001019060200180831161044457829003601f168201915b5050505050815260200160018201805480602002602001604051908101604052809291908181526020016000905b828210156104d55783829060005260206000209060020201604051806040016040529081600082015481526020016001820154815250508152602001906001019061048f565b5050505081526020016002820160009054906101000a900460ff1615151515815250509050919050565b828054600181600116156101000203166002900490600052602060002090601f016020900481019282601f1061054057805160ff191683800117855561056e565b8280016001018555821561056e579182015b8281111561056d578251825591602001919060010190610552565b5b50905061057b91906105bc565b5090565b604051806040016040528060008152602001600081525090565b604051806060016040528060608152602001606081526020016000151581525090565b6105de91905b808211156105da5760008160009055506001016105c2565b5090565b90565b6000813590506105f081610a4c565b92915050565b600082601f83011261060757600080fd5b813561061a6106158261091f565b6108f2565b9150808252602083016020830185838301111561063657600080fd5b6106418382846109f9565b50505092915050565b60008135905061065981610a63565b92915050565b60006020828403121561067157600080fd5b600061067f848285016105e1565b91505092915050565b6000806040838503121561069b57600080fd5b600083013567ffffffffffffffff8111156106b557600080fd5b6106c1858286016105f6565b92505060206106d28582860161064a565b9150509250929050565b6000602082840312156106ee57600080fd5b60006106fc8482850161064a565b91505092915050565b60006107118383610862565b60408301905092915050565b60006107288261095b565b610732818561097e565b935061073d8361094b565b8060005b8381101561076e5781516107558882610705565b975061076083610971565b925050600181019050610741565b5085935050505092915050565b610784816109c3565b82525050565b610793816109c3565b82525050565b60006107a482610966565b6107ae818561098f565b93506107be818560208601610a08565b6107c781610a3b565b840191505092915050565b60006107dd82610966565b6107e781856109a0565b93506107f7818560208601610a08565b61080081610a3b565b840191505092915050565b600060608301600083015184820360008601526108288282610799565b91505060208301518482036020860152610842828261071d565b9150506040830151610857604086018261077b565b508091505092915050565b6040820160008201516108786000850182610891565b50602082015161088b6020850182610891565b50505050565b61089a816109ef565b82525050565b600060408201905081810360008301526108ba81856107d2565b90506108c9602083018461078a565b9392505050565b600060208201905081810360008301526108ea818461080b565b905092915050565b6000604051905081810181811067ffffffffffffffff8211171561091557600080fd5b8060405250919050565b600067ffffffffffffffff82111561093657600080fd5b601f19601f8301169050602081019050919050565b6000819050602082019050919050565b600081519050919050565b600081519050919050565b6000602082019050919050565b600082825260208201905092915050565b600082825260208201905092915050565b600082825260208201905092915050565b60006109bc826109cf565b9050919050565b60008115159050919050565b600073ffffffffffffffffffffffffffffffffffffffff82169050919050565b6000819050919050565b82818337600083830152505050565b60005b83811015610a26578082015181840152602081019050610a0b565b83811115610a35576000848401525b50505050565b6000601f19601f8301169050919050565b610a55816109b1565b8114610a6057600080fd5b50565b610a6c816109ef565b8114610a7757600080fd5b5056fea365627a7a72315820b7f24d648bf4227c587b23daff6d5bedb7b233aebe24446bad23f9d6d1f1ba836c6578706572696d656e74616cf564736f6c63430005100040",
  "source": "pragma solidity ^0.5.0;\r\npragma experimental ABIEncoderV2;\r\n\r\ncontract ClearMileage {\r\n    struct dateKm {\r\n        uint date;\r\n        uint km;\r\n    }\r\n    struct carInfo {\r\n        string matricula;\r\n        dateKm[] kmArray;\r\n        bool exists;\r\n    }\r\n    mapping(address => carInfo) public cars;\r\n    \r\n    function setCarInfo(string memory m, uint k) public{\r\n        if (cars[msg.sender].exists) setCarKm(k);\r\n        else{\r\n            cars[msg.sender].matricula = m;\r\n            cars[msg.sender].exists = true;\r\n            setCarKm(k);\r\n        }\r\n    }\r\n\r\n    function setCarKm(uint k) public{\r\n            dateKm memory temp;\r\n            temp.date = now;\r\n            temp.km = k;\r\n            cars[msg.sender].kmArray.push(temp);\r\n    }\r\n\r\n    function getCarInfo(address wallet) public view returns (carInfo memory){\r\n        return cars[wallet];\r\n    }\r\n}",
  "sourcePath": "C:/code/pet-shop-tutorial/contracts/ClearMileage.sol",
  "compiler": {
    "name": "solc",
    "version": "0.5.16+commit.9c3226ce.Emscripten.clang"
  },
  "schemaVersion": "3.0.22",
  "updatedAt": "2020-03-30T17:08:32.550Z",
  "networkType": "ethereum",
  "devdoc": {
    "methods": {}
  },
  "userdoc": {
    "methods": {}
  }
}