{
  "contractName": "ClearMileage",
  "abi": [
    {
      "constant": true,
      "inputs": [
        {
          "internalType": "address",
          "name": "",
          "type": "address"
        }
      ],
      "name": "cars",
      "outputs": [
        {
          "internalType": "string",
          "name": "matricula",
          "type": "string"
        },
        {
          "internalType": "bool",
          "name": "exists",
          "type": "bool"
        }
      ],
      "payable": false,
      "stateMutability": "view",
      "type": "function"
    },
    {
      "constant": false,
      "inputs": [
        {
          "internalType": "string",
          "name": "m",
          "type": "string"
        },
        {
          "internalType": "uint256",
          "name": "k",
          "type": "uint256"
        }
      ],
      "name": "setCarInfo",
      "outputs": [],
      "payable": false,
      "stateMutability": "nonpayable",
      "type": "function"
    },
    {
      "constant": false,
      "inputs": [
        {
          "internalType": "uint256",
          "name": "k",
          "type": "uint256"
        }
      ],
      "name": "setCarKm",
      "outputs": [],
      "payable": false,
      "stateMutability": "nonpayable",
      "type": "function"
    },
    {
      "constant": true,
      "inputs": [
        {
          "internalType": "address",
          "name": "wallet",
          "type": "address"
        }
      ],
      "name": "getCarInfo",
      "outputs": [
        {
          "components": [
            {
              "internalType": "string",
              "name": "matricula",
              "type": "string"
            },
            {
              "components": [
                {
                  "internalType": "uint256",
                  "name": "date",
                  "type": "uint256"
                },
                {
                  "internalType": "uint256",
                  "name": "km",
                  "type": "uint256"
                }
              ],
              "internalType": "struct ClearMileage.dateKm[]",
              "name": "kmArray",
              "type": "tuple[]"
            },
            {
              "internalType": "bool",
              "name": "exists",
              "type": "bool"
            }
          ],
          "internalType": "struct ClearMileage.carInfo",
          "name": "",
          "type": "tuple"
        }
      ],
      "payable": false,
      "stateMutability": "view",
      "type": "function"
    },
    {
      "constant": true,
      "inputs": [],
      "name": "greet",
      "outputs": [
        {
          "internalType": "string",
          "name": "",
          "type": "string"
        }
      ],
      "payable": false,
      "stateMutability": "view",
      "type": "function"
    }
  ],
  "bytecode": "0x608060405234801561001057600080fd5b50610b89806100206000396000f3fe608060405234801561001057600080fd5b50600436106100575760003560e01c80634b8703431461005c578063afd79cbd14610078578063b3fd9745146100a9578063c1588e80146100c5578063cfae3217146100f5575b600080fd5b610076600480360361007191908101906106ee565b610113565b005b610092600480360361008d91908101906106c5565b610233565b6040516100a0929190610961565b60405180910390f35b6100c360048036036100be9190810190610742565b6102fc565b005b6100df60048036036100da91908101906106c5565b6103a0565b6040516100ec9190610991565b60405180910390f35b6100fd610528565b60405161010a919061093f565b60405180910390f35b6000803373ffffffffffffffffffffffffffffffffffffffff1673ffffffffffffffffffffffffffffffffffffffff16815260200190815260200160002060020160009054906101000a900460ff161561017557610170816102fc565b61022f565b816000803373ffffffffffffffffffffffffffffffffffffffff1673ffffffffffffffffffffffffffffffffffffffff16815260200190815260200160002060000190805190602001906101ca929190610565565b5060016000803373ffffffffffffffffffffffffffffffffffffffff1673ffffffffffffffffffffffffffffffffffffffff16815260200190815260200160002060020160006101000a81548160ff02191690831515021790555061022e816102fc565b5b5050565b6000602052806000526040600020600091509050806000018054600181600116156101000203166002900480601f0160208091040260200160405190810160405280929190818152602001828054600181600116156101000203166002900480156102df5780601f106102b4576101008083540402835291602001916102df565b820191906000526020600020905b8154815290600101906020018083116102c257829003601f168201915b5050505050908060020160009054906101000a900460ff16905082565b6103046105e5565b42816000018181525050818160200181815250506000803373ffffffffffffffffffffffffffffffffffffffff1673ffffffffffffffffffffffffffffffffffffffff168152602001908152602001600020600101819080600181540180825580915050906001820390600052602060002090600202016000909192909190915060008201518160000155602082015181600101555050505050565b6103a86105ff565b6000808373ffffffffffffffffffffffffffffffffffffffff1673ffffffffffffffffffffffffffffffffffffffff168152602001908152602001600020604051806060016040529081600082018054600181600116156101000203166002900480601f01602080910402602001604051908101604052809291908181526020018280546001816001161561010002031660029004801561048a5780601f1061045f5761010080835404028352916020019161048a565b820191906000526020600020905b81548152906001019060200180831161046d57829003601f168201915b5050505050815260200160018201805480602002602001604051908101604052809291908181526020016000905b828210156104fe578382906000526020600020906002020160405180604001604052908160008201548152602001600182015481525050815260200190600101906104b8565b5050505081526020016002820160009054906101000a900460ff1615151515815250509050919050565b60606040518060400160405280600581526020017f48454c4c4f000000000000000000000000000000000000000000000000000000815250905090565b828054600181600116156101000203166002900490600052602060002090601f016020900481019282601f106105a657805160ff19168380011785556105d4565b828001600101855582156105d4579182015b828111156105d35782518255916020019190600101906105b8565b5b5090506105e19190610622565b5090565b604051806040016040528060008152602001600081525090565b604051806060016040528060608152602001606081526020016000151581525090565b61064491905b80821115610640576000816000905550600101610628565b5090565b90565b60008135905061065681610b18565b92915050565b600082601f83011261066d57600080fd5b813561068061067b826109e0565b6109b3565b9150808252602083016020830185838301111561069c57600080fd5b6106a7838284610ac5565b50505092915050565b6000813590506106bf81610b2f565b92915050565b6000602082840312156106d757600080fd5b60006106e584828501610647565b91505092915050565b6000806040838503121561070157600080fd5b600083013567ffffffffffffffff81111561071b57600080fd5b6107278582860161065c565b9250506020610738858286016106b0565b9150509250929050565b60006020828403121561075457600080fd5b6000610762848285016106b0565b91505092915050565b60006107778383610901565b60408301905092915050565b600061078e82610a1c565b6107988185610a4a565b93506107a383610a0c565b8060005b838110156107d45781516107bb888261076b565b97506107c683610a3d565b9250506001810190506107a7565b5085935050505092915050565b6107ea81610a8f565b82525050565b6107f981610a8f565b82525050565b600061080a82610a32565b6108148185610a6c565b9350610824818560208601610ad4565b61082d81610b07565b840191505092915050565b600061084382610a27565b61084d8185610a5b565b935061085d818560208601610ad4565b61086681610b07565b840191505092915050565b600061087c82610a27565b6108868185610a6c565b9350610896818560208601610ad4565b61089f81610b07565b840191505092915050565b600060608301600083015184820360008601526108c78282610838565b915050602083015184820360208601526108e18282610783565b91505060408301516108f660408601826107e1565b508091505092915050565b6040820160008201516109176000850182610930565b50602082015161092a6020850182610930565b50505050565b61093981610abb565b82525050565b6000602082019050818103600083015261095981846107ff565b905092915050565b6000604082019050818103600083015261097b8185610871565b905061098a60208301846107f0565b9392505050565b600060208201905081810360008301526109ab81846108aa565b905092915050565b6000604051905081810181811067ffffffffffffffff821117156109d657600080fd5b8060405250919050565b600067ffffffffffffffff8211156109f757600080fd5b601f19601f8301169050602081019050919050565b6000819050602082019050919050565b600081519050919050565b600081519050919050565b600081519050919050565b6000602082019050919050565b600082825260208201905092915050565b600082825260208201905092915050565b600082825260208201905092915050565b6000610a8882610a9b565b9050919050565b60008115159050919050565b600073ffffffffffffffffffffffffffffffffffffffff82169050919050565b6000819050919050565b82818337600083830152505050565b60005b83811015610af2578082015181840152602081019050610ad7565b83811115610b01576000848401525b50505050565b6000601f19601f8301169050919050565b610b2181610a7d565b8114610b2c57600080fd5b50565b610b3881610abb565b8114610b4357600080fd5b5056fea365627a7a72315820cd7030a6dfa859c91fc63d0edbaf90a028facde92624b854631d10b0f9f03fb66c6578706572696d656e74616cf564736f6c63430005100040",
  "source": "pragma solidity ^0.5.0;\r\npragma experimental ABIEncoderV2;\r\n\r\ncontract ClearMileage {\r\n    struct dateKm {\r\n        uint date;\r\n        uint km;\r\n    }\r\n    struct carInfo {\r\n        string matricula;\r\n        dateKm[] kmArray;\r\n        bool exists;\r\n    }\r\n    mapping(address => carInfo) public cars;\r\n    \r\n    function setCarInfo(string memory m, uint k) public{\r\n        if (cars[msg.sender].exists) setCarKm(k);\r\n        else{\r\n            cars[msg.sender].matricula = m;\r\n            cars[msg.sender].exists = true;\r\n            setCarKm(k);\r\n        }\r\n    }\r\n\r\n    function setCarKm(uint k) public{\r\n            dateKm memory temp;\r\n            temp.date = now;\r\n            temp.km = k;\r\n            cars[msg.sender].kmArray.push(temp);\r\n    }\r\n\r\n    function getCarInfo(address wallet) public view returns (carInfo memory){\r\n        return cars[wallet];\r\n    }\r\n\r\n    function greet() public view returns (string memory) {\r\n        return \"HELLO\";\r\n    }\r\n}",
  "sourcePath": "C:/code/pet-shop-tutorial/contracts/ClearMileage.sol",
  "compiler": {
    "name": "solc",
    "version": "0.5.16+commit.9c3226ce.Emscripten.clang"
  },
  "schemaVersion": "3.0.22",
  "updatedAt": "2020-04-23T13:48:40.885Z",
  "networkType": "ethereum",
  "devdoc": {
    "methods": {}
  },
  "userdoc": {
    "methods": {}
  }
}